:10C00000F08A0020DDC50000E5C50000E7C500009E
:10C01000E9C50000E9C50000E9C500000000000016
:10C02000000000000000000000000000E9C5000062
:10C03000E9C5000000000000E9C50000E9C50000F6
:10C04000E9C50000E9C50000E9C50000E9C5000038
:10C05000E9C50000E9C50000E9C50000E9C5000028
:10C06000E9C50000E9C50000E9C50000E9C5000018
:10C07000E9C50000E9C50000E9C50000E9C5000008
:10C08000E9C50000E9C50000E9C50000E9C50000F8
:10C09000E9C50000E9C50000E9C50000E9C50000E8
:10C0A000E9C50000E9C50000E9C50000E9C50000D8
:10C0B000E9C50000E9C50000E9C50000E9C50000C8
:10C0C000E9C50000E9C50000E9C50000E9C50000B8
:10C0D000E9C50000E9C50000E9C50000E9C50000A8
:10C0E000E9C50000E9C50000E9C50000E9C5000098
:10C0F000E9C50000E9C50000E9C50000E9C5000088
:10C10000E9C50000E9C50000E9C50000E9C5000077
:10C11000E9C50000E9C50000E9C500000000000015
:10C12000EBC500008FC500008FC500008FC5000063
:10C130008FC500008FC50000000000000000000057
:10C1400000000000000000008FC500008FC5000047
:10C15000000000008FC500008FC500000000000037
:10C1600000000000000000000000000000000000CF
:10C1700000000000000000000000000000000000BF
:10C1800000000000000000000000000000000000AF
:10C19000000000000000000000000000000000009F
:10C400004C5050410000000000C00000881D010099
:10C410001500000000000000000000000000000007
:10C420004C6F6164204D5043303420426F6F742054
:10C430004C6F6164657200000000000000000000A5
:10C44000556E757365640000000000000000000078
:10C4500000000000000000000000000000000000DC
:10C4600000000000000000000000000000000000CC
:10C4700000000000000000000000000000000000BC
:10C4800000000000000000000000000000000000AC
:10C49000000000000000000000000000000000009C
:10C4A000000000000000000000000000000000008C
:10C4B000000000000000000000000000000000007C
:10C4C000000000000000000000000000000000006C
:10C4D000000000000000000000000000000000005C
:10C4E000000000000000000000000000000000004C
:10C4F000000000000000000000000000000000003C
:10C50000000000000000000010B51448144909683C
:10C51000C96D8847002408E04FF4806000FB04F0F8
:10C5200010490968C9688847641C1F2CF4D300218E
:10C530000D4847F6F0020B4B1B681B6898470B48E9
:10C54000000B000310F5A04006490968C968884738
:10C5500003480068C06C8047FEE700BF4005C0028A
:10C56000440000012C0000010010002000C4000065
:10C5700000F00BF8002801D000F00AF80020C046B7
:10C58000C046FFF7C1FF00F017F801207047FEE733
:10C5900010B5074979441831064C7C44163404E040
:10C5A0000A68081D511888470146A142F8D110BDFC
:10C5B000180200003002000000F000B807463846BC
:10C5C00000F002F8FBE7000080B5C046C046024A12
:10C5D00011001820ABBEFBE72600020080B500F07A
:10C5E00004F801BDFEE7FEE7FEE7C046C046C046D0
:10C5F000C046FFF7BDFF816807E002681168536815
:10C6000089185B18C36008320260C2689142F4D096
:10C610004A1C82600878704738B504460D46A06809
:10C62000E168884212D120686168884208BF00F042
:10C63000C8F82068227C016802B14944A1604268C0
:10C640005218E260083020609142ECD0A068401C93
:10C65000A06000F8015D31BD2DE9F04589B000F121
:10C66000080105910168059A490802EBC10106918C
:10C670000021079108910168490800EBC1010831C8
:10C680000091017901F001018DF8101040680099C6
:10C69000400801EBC000019000200290039088E068
:10C6A00005A8FFF7A8FF044614F0030503D105A869
:10C6B000FFF7A1FFC51C26090F2E1BD105A8FFF708
:10C6C0009AFF00F10F0615E0059801680818059912
:10C6D0000790496808180890059808300590079851
:10C6E00008998842F0D0401C079010F8011D00A85E
:10C6F000FFF792FF6D1EF2D1002E55D005A8FFF76F
:10C700007AFF0546A00800F00300032804BF05A82F
:10C71000FFF771FF009C0299DDF80C8005EB00200B
:10C7200008E0083C801A54F8041C54F8082C01EB6B
:10C730000208414654F8082C8A1A8242F1D340423A
:10C7400047180025B61C2FD0474507D154F8047B65
:10C7500054F8040B00EB07084745F7D002980399FB
:10C7600017F801AB884217D100980199884208BF99
:10C7700000F027F8009800689DF81010029009B1A9
:10C7800048440290009902984968009A09180832B2
:10C79000039100928842E7D00298401C02906D1CE1
:10C7A00000F801ADB542CFD10298039988427FF4D9
:10C7B00077AF0198009981427FF472AF09B0BDE86C
:10C7C000F0850120FFF700BF91FEFFFF020000008F
:10C7D0000200000010000000A05500000010002022
:10C7E000F07800001007BC12002071780000790476
:10C7F000127B04927D04E1026002450F00021812D0
:10C80000DD0C43751110F19B04F319E5732C210223
:10C81000127F08F301CF1004E102A118F10724F1FF
:10C82000FF12F5FF22F563952406544F4F42000096
:10C830000801A11AF0ECD615B5F40904426F6F7423
:10C84000204C6F61646572D5F804B9556E757365D7
:10C8500064A543C5140800FEB71DC1046E3B8209E0
:10C86000D926430DDC7604136B6BC517B24D861ABF
:10C870000550471EB8ED08260FF0C922D6D68A2FDC
:10C8800061CB4B2B649B0C35D386CD310AA08E3CFB
:10C89000BDBD4F3870DB114CC7C6D0481EE0934574
:10C8A000A9FD5241ACAD155F1BB0D45BC296975643
:10C8B000758B5652C836196A7F2BD86EA60D9B63AE
:10C8C00011105A6714401D79A35DDC7D7A7B9F703F
:10C8D000CD665E74E0B6239857ABE29C8E8DA19135
:10C8E000399060953CC0278B8BDDE68F52FBA5828B
:10C8F000E5E66486585B2BBEEF46EABA3660A9B718
:10C90000817D68B3842D2FAD3330EEA9EA16ADA436
:10C910005D0B6CA0906D32D42770F3D0FE56B0DD65
:10C92000494B71D94C1B36C7FB06F7C32220B4CE46
:10C93000953D75CA28803AF29F9DFBF646BBB8FB31
:10C94000F1A679FFF4F63EE143EBFFE59ACDBCE8B2
:10C950002DD07DEC7770863400FEC06D4730194BCA
:10C96000043DAE56C539AB0682271C1B4323C53D8B
:10C97000002E7220C12ACF9D8E1278804F16A1A65C
:10C980000C1B16BBCD1F13EB8A01A4F64B057DD003
:10C990000808CACDC90C07AB9778B0B6567C699029
:10C9A0001571DE8DD475DBDD936B6CC0526FB5E60F
:10C9B000116202FBD066BF469F5E085B5E5AD17D66
:10C9C0001D576660DC5363309B4DD42D5A490D0BC7
:10C9D0001944BA16D84097C6A5AC20DB64A8F9FD67
:10C9E00027A54EE0E6A14BB0A1BFFCAD60BB258BF7
:10C9F00023B69296E2B22F2BAD8A98366C8E4110F8
:10CA00002F83F60DEE87F35DA9994440689D9D66DE
:10CA10002B902A7BEA94E71DB4E0500075E4892648
:10CA200036E93E3BF7ED3B6BB0F38C7671F7555032
:10CA300032FAE24DF3FE5FF0BCC6E8ED7DC231CBC9
:10CA40003ECF86D6FFCB8386B8D5349B79D1EDBD5A
:10CA50003ADC5AA0FBD8EEE00C6900FE59FDCD6D22
:10CA600080DB8E6037C64F643296087A858BC97E2C
:10CA70005CAD8A73EBB04B77560D044FE110C54B9C
:10CA8000383686468F2B47428A7B005C3D66C1580C
:10CA9000E4408255535D43519E3B1D252926DC21F0
:10CAA000F0009F2C471D5E28424D1936F550D832B4
:10CAB0002C769B3F9B6B5A3B26D6150391CBD40714
:10CAC00048ED970AFFF0560EFAA011104DBDD01494
:10CAD000949B93192386521D0E562FF1B94BEEF5F8
:10CAE000606DADF8D7706CFCD2202BE2653DEAE6B4
:10CAF000BC1BA9EB0B0668EFB6BB27D701A6E6D394
:10CB0000D880A5DE6F9D64DA6ACD23C4DDD0E2C093
:10CB100004F6A1CDB3EB60C97E8D3EBDC990FFB9CF
:10CB200010B6BCB4A7AB7DB0A2FB3AAE15E6FBAA2B
:10CB3000CCC0B8A77BDD79A3C660369B717DF79F1B
:10CB4000A85BB4921F4675961A163288AD0BF38C0B
:10CB5000742DB081C330718599908A5D6CFA2E8DE9
:10CB60004B59F7AB085440B6C95045E68E4EF2FB20
:10CB70004F4A2BDD0C479CC0CD43217D827B9660C4
:10CB8000437F4F460072F85BC176FD0B86684A16FC
:10CB9000476C93300461242DC565E94B9B115E56AB
:10CBA0005A1587701918306DD81C353D9F028220A8
:10CBB0005E065B061D0BEC1BDC0F51A69337E6BB34
:10CBC00052333F9D113E8880D03A8DD097243ACD84
:10CBD0005620E3EB152D54F6D4297926A9C5CE3B72
:10CBE00068C1171D2BCCA000EAC8A550ADD6124DC8
:10CBF0006CD2CB6B2FDF7C76EEDBC1CBA1E376D69C
:10CC000060E7AFF023EA18EDE2EE1DBDA5F0AAA0A3
:10CC100064F4738627F9C49BE6FD09FDB889BEE07C
:10CC2000798D67C63A80D0DBFB84D58BBC9A62963F
:10CC30007D9EBBB03E930CADFF97B110B0AF060D1B
:10CC400071ABDF2B32A66836F3A26D66B4BCDA7B1B
:10CC500075B8035D36B5B440F7B10C048F01751893
:10CC600004CC04993C0000B9752C0443FD3C0892A7
:10CC7000CD188311760CC0049D3D00008D3E3453C9
:10CC8000E53D1C911892110CC004213F0000514158
:10CC90003443753F0892A51883A13F0C12F118C3C5
:10CCA0009576344341420892A718A2C90C1120C3BB
:10CCB00041773443254308926318926B0C129120FC
:10CCC000D2DB3452DD3492E7181E0748069007483D
:10CCD0006F737420436F6D6D2C13912A28123134B9
:10CCE000100629000017280000FB0483692920533F
:10CCF000292C28162D04122E20F3002C00011003DD
:10CD0000CF3400001F041F4535AC05F2097804F14B
:10CD10000330210213990F5C10020E0000BF0412B1
:10CD2000350C1E37A809535110B04008636F6E6E62
:10CD300065637465642E10900164697313101A00A2
:10CD4000040309041E03530079006E0061007000A3
:10CD5000740069006300730020004912136300230C
:10CD60001014000C034D0050004300300034002824
:10CD700003420075006C006B2212443212740441AD
:10CD80002C1005740065007200661012630AF2042C
:10CD90003028100143006F2A12666412671E327237
:10CDA0001832691410032C0B0000300422500810B4
:10CDB000020200205C08128404100BCB061700F45A
:10CDC000018000FD490000F8102108431C0C0812E6
:10CDD000400812B4141206A41354EA5F11011003A0
:10CDE000A34B0000CC144004575000005F510C13BB
:10CDF000C0D21C100208000088242D1508529B2464
:10CE00006003F94F00003F2442DA2452A024529FCD
:10CE10002412E148624F2412E824111D12B824188C
:10CE20000C0904000003FF00FF0007050102402079
:10CE3000430582072001830340241209441258C885
:10CE4000121E081264A8220208111087940CC8133D
:10CE50004713B01A19148236141EA5800313251621
:10CE6000089D4003CBB173049A8B0C1F3D33B0086F
:10CE70001104C319333083F54610213012A510F088
:10CE8000056855534220547800011F1B5C840842FA
:10CE90005C0C43915D0813335E9811041FFD5F40E5
:10CEA000031A60B8110412F5041F4361AC04141195
:10CEB00062000010B582B0040020200090202320E2
:10CEC000222021E52009F025F80020C4F80C010EED
:10CED000490E2330F80C1029200016BD80B50B48F0
:10CEE000006800280DD14FF4887000F039F900284F
:10CEF00004D0FFF7DDFF0549086002E00348002188
:10CF000001600224400802BD4C50504108EB002053
:10CF100060200804980090DBB2D2B2C9B25220045B
:10CF20002FF90248206052100900BFE00A00002DCE
:10CF3000E9F041C42610050D0000260027864018A0
:10CF40000780688047804613E03911400822681244
:10CF500069904700280AD00E200252689047468008
:10CF60001616F9A84200D13E0017F58067002E0181
:10CF7000D14745E7D3002E0BD1CC280501A8FFF7F8
:10CF8000BFFF01B9500EF001F9300044B0BDE8F028
:10CF900081F8B504006D6419DA22251E3001F9F814
:10CFA00007262004F7F8874227D20A3003F0F8B0AA
:10CFB00042220A2004EDF800281DD00A12E814329B
:10CFC00018143001E3F806302012DDF8301A061F7D
:10CFD0000420B6FBF0F101FB1061002908D11828EC
:10CFE00001D1F832A522200A200405002800F2BD54
:10CFF000761B0D0079432729D4226AD4900106D0EC
:10D00000310E430DD11C32520E52151C410E4009F7
:10D010000ED0B5420CD2721B0420B26C100221005B
:10D020002904302164129FBE5238641D9F044004BD
:10D03000253E000420B726900871002901D0002069
:10D040003FE03968800407D017F584711090010E15
:10D05000D1396A72271E411090141FD0F068021F48
:10D06000B16820002368DB6998470700F068011F5A
:10D070004E62D1104130100307D0002F0534140345
:10D0800050F8040C87A2540B01252800C0B2F2BD51
:10D0900010B50C000F781802844201D2533004E01E
:10D0A0000020C0B2101A1005B4F1005F09D30720A8
:10D0B000124020C00210F100502429CC1A44B318A9
:10D0C0000410B5044601E07C1807F8204600F0384B
:10D0D000F828B976680A680100F5D08047F5E710AE
:10D0E000BD387448019C009472180200F07DF8BCB1
:10D0F00010016870473C35B61005B1F8200010BD2E
:10D10000C0121C1500697047FEE710B408E00B78E8
:10D1100093EA1063064C54F82330938004100A49B4
:10D120001C13005A1E002BF2D110BC281001001451
:10D1300005812051F0BBB870B5054605F10F00C45C
:10D1400008E400C046C046A54232D2082C04D208EA
:10D150002402E0083000F0ADF82248026811000C0B
:10D16000D1011D0A6802B31368A34238BF111DF82C
:10D17000D310E01D68A5420DD2191D0B68002BF8D5
:10D18000D11268011D00E00E200293420CD01C1049
:10D1900013F8D361B10D682A68A2F10803A3420A0B
:10D1A000D26A680A600FEC1AC38223D0D16E2C1E9B
:10D1B000002070BD63190B60121B6E685E600B6807
:10D1C0001A602C60096800291DBF4A68002A091DE1
:10D1D00080032128140505F1080070BD000C697852
:10D1E000321FFA1C01B4F8187A031E068E034C088D
:10D1F0003B00DBB23200D2B2290094031005ABF839
:10D20000A0600020E0041E20490612600422A00451
:10D2100012831411043C012062021A0416A33A304E
:10D220000700F0A2F810F5827189381E9E2C0418B0
:10D230000184F82488100184F844641EF2D4031E8B
:10D24000B0D40332387829D0103300F08EF8A868B3
:10D25000A060E868E0602869206168696061A86989
:10D26000A061A88BA083E88BE083286A206214F178
:10D27000240015F12401202200F07CF814F1440E62
:10D2800010014401C80E1275721B32BD082403F050
:10D29000B0B800B9C4340DA0F108042068082833E0
:10D2A000D310F0070F301834571848416809B18C73
:10D2B0004203D26160446017E019464B680BB1A38A
:10D2C00042FAD30A6853189C421BD3A34204D123C9
:10D2D000689A180A600C4607E04A681AB123681B6E
:10D2E000199A420ED362604C60616851B122681392
:10D2F000198B4206D100230360086880182060481B
:10D3000068604E397E154C14040749086808B184DA
:10D310001811470648C008C00008600549C908C977
:10D3200000091A01602413BF3C242BC712B018094E
:10D33000002080B500F061F802BDC984101510040A
:10D3400010EB0160DBB210EB03210098401870472E
:10D3500081807047044812C10820048A888280C9ED
:10D36000880A200B62B38B0708D0521E11F8013BCC
:10D370000004101AF024808B07F6D1830740F020B8
:10D380008000BF103A07D330B4B1E83810103AA08B
:10D3900006100BF9D230BC530724BFB1E80810A027
:10D3A00004100544BF51F8043B400412D216100388
:10D3B00031F8022B2004100744BF0B78037070472C
:10D3C000083E212A23083A221104100CCBF7D2532D
:10D3D00007E4E70268531C036011222380B5EE1CAA
:10D3E00009024A11001820ABBEFBE72656072008A9
:10D3F00003490160002181800021A2FC020300BFDB
:10D40000A80C34068C02FFF70BFD3406FC0205FF66
:10D41000F716FD3406FC0209FFF71FFE34062D58EF
:10D4200010160C44110E1E2838041520240400BFC9
:10D43000AAAAAA0A4C16014C3A3E541A0CC22C0451
:10D44000626004F5E05070031A95801C1902900583
:10D4500020019000944FF4E05314F1080229000FCA
:10D46000F21500034D2D68A82A061C013EBD10BC14
:10D47000031D370A1C060280B5010002681240062F
:10D48000100301BDF0B58BC42002002003904022A0
:10D49000004011D0280600230022002105A8781C96
:10D4A00005606800F090F88040041E8FC405210ECE
:10D4B000328D0E1E88FC05100109E00024200E8725
:10D4C000F8406833002A00616807683F68B8473E43
:10D4D00012292A12670E21101C010128F5A205212C
:10D4E0004E2378F83011481106600294F80100BE0E
:10D4F000600290F800900C2004B1F8049004A92870
:10D500001EB3F00313CED190100628CBD105A9602D
:10D510006862B42D04073C03CEE730B585280711B7
:10D52000CE1C02F0A9F82A640612023012A652217B
:10D530003812A5A8614E328A1E610E14059DF805A9
:10D54000B030BD1C402201601EF92E092EA99A039D
:10D5500027AFF9A4AD24041403FFF7A2FE09621C4F
:10D560000D0798A0810898E08109982082069B3ACF
:10D570002A041E312A042DCA051C0300F098F9A0C4
:10D58000BE071801F2BDBC0C100780897047FFF779
:10D5900034BDC00825A82395F9044F02BD0004211D
:10D5A000A812902E1F281D3C041002F9A081A80883
:10D5B0001C039FF9E08115A004180700F09AF920D8
:10D5C0008215F10A2811C41FF931080615923D6829
:10D5D0000412AB983E10B4059E7C48041BA4F9725B
:10D5E000110834031CF80190012A11121DBE0621F6
:10D5F0000A12A3784FA5F996071001A7F932321045
:10D600000100F0A81E3E03BA071F03F848061B9846
:10D61000768E452A2BA2F97021B0100583F910F0FF
:10D62000010090041003C0B202BD40721C010160F1
:10D6300042CE031DBC051002604968410A1401F284
:10D64000B586741DE4121D4E0823AEFF4E128A5893
:10D650003E09E8071C0187F92B24033201B420029C
:10D6600082F904E1081005A9F9039003A9066612DE
:10D6700055283602C8231DD0101251A41253A425D8
:10D68000164F9FF972081251AC12390812522C2011
:10D690000200F0DE8028163DA0522B56340257F9C6
:10D6A000D9E0963002FF02900256722A56231ED00D
:10D6B0004A527AF6127AD4500100F0235852255873
:10D6C00032265823B280142269AE46686220022BAB
:10D6D000F9ADE04E12079452099452553C52073C62
:10D6E00012083C2F39D02E06211E124626253C1248
:10D6F0004C325C03ECF800F0EE340943F0F82E1ADB
:10D70000F1B62322D098361F9212DA24323D9418B3
:10D71000023CF900783820012809D01827CEF834C7
:10D7200041863001E8F86A8687C4F8482002DEF8AE
:10D7300060E070120E70211C12B64852B86C52BADA
:10D740006C12BB6C32479A251C1F14FFBE03112AB2
:10D750001B0CF91613F09A1C32158212993A439B4E
:10D76000F8DC52E742529942679AF8F84D62082174
:10D77000B6216E127F3423E2F8B663E1F8B62118C1
:10D780009273B61F8DF8960711149269B61007832D
:10D79000F805E02A00210004184C06CFF804980789
:10D7A000B0F0BD12031E5D0E031EC088081C0409E4
:10D7B0000411EB00600E061C04EB0220DBB218061D
:10D7C000062E0094081E300E061008B04FF6AA71FF
:10D7D000ADF800109D04F01C04FF2901D100680978
:10D7E000E001784278120412EB0161827811EB02B9
:10D7F00021C078401801B02E1388042E1F4078668F
:10D800000620012080B2246D7E03380DFFF7E8FF6B
:10D81000A080A81CFFF7E4FFE08031F24B23F9FA67
:10D820004F26F90C036F1CF80C03324C1A4002FF10
:10D83000F7B3FF082004B1FF00F04BF80C2B1430B5
:10D84000009C0102BD9194096D50091C01FFF7D4A1
:10D8500016031D24071D4C09AC0470472DE9FC413B
:10D86000720820062FF9401E21698142282002F00B
:10D87000FF8046081FECFFF4052C039100974346F8
:10D88000260B49AE6C0407003B0032008E0817419E
:10D89000F9A41D70032006CEFF0068BDE8F6819E46
:10D8A000200252FA01681463C4FFB0434FFAA81172
:10D8B0001213F008A86DE0092345FA90470830805C
:10D8C0008345FA1A32411A1D700C3F478A48053ABF
:10D8D000161C28023DFAD0F8E41C0BFFF79FFF0747
:10D8E000005FF0010804E0485E0A32371848044837
:10D8F00046FFF7DBFF0C20021BD14F46101270CA07
:10D900001230302002BCFF82463810036EFF4246C0
:10D910005118126F1820085FFA88F8B8F1000FDD6F
:10D92000D12A23BCFF4443DCE7D06366FF1E2320DB
:10D93000D0382F93FF2C04211A6F3FFFD603180312
:10D9400010D033003A5621201E58F603140301224A
:10D9500002A908A81005F1F9D0E90023C4041A307F
:10D960007E2002FFF788FF8220027BFF81460E5057
:10D970000323FFFFF7258E300127FF4A8E1228541C
:10D9800032114E2F4146BC051C01FFF7302A033CE3
:10D9900001012201480472C9501F08E0F6062AA9B5
:10D9A000BA72BF142E0A2C0D4A87483A11281EB5A8
:10D9B00096044D88051EB19E057632543EAEAC05E8
:10D9C0004D440621102402A8F90668E62004F9FE59
:10D9D000070003E0A420023AFF0668085638463ED6
:10D9E000153C05239AF9142FCBFEA80621C21ED19F
:10D9F0001A0836E7021C01E4D1370C11100100F0BF
:10DA0000774A2FE2E7DA0C1D100388036888420189
:10DA1000D17C25DA3A81B049C6237CF9442401E25D
:10DA2000FB02DE1C024184B00CB2054C021E000A4F
:10DA30009F220720026DF90121081C0574F9804618
:10DA40004146184E0A1E76DC04280208D00B99883D
:10DA50002DC407122170236EF95E3C014046042854
:10DA60000E1270D2300B16001D002069401C206180
:10DA7000A6420CB6E0026AF90560081F1FE0660CBA
:10DA80002001290ED0B45266181E5AFA04300186BD
:10DA9000421234125414160D0A500100F0581E326E
:10DAA0004F1E32031E1249143E1EF2043E4B2E0539
:10DAB000124AAC2301702E32450A211A323E1A3224
:10DAC0003B0650013AF90016323310200230F905B6
:10DAD000680E322C0E5E2B6C05200240F0B18016D1
:10DAE0005E21DC05321D1E20021AF9366808321349
:10DAF00080233FD11A32101A320D06160872217A8D
:10DB00005208463EB362063EFF100512FA06300187
:10DB1000854207344802F6F805680C23F5F8103200
:10DB2000EE2263EDF8B032E61032E30663E2F8B0BD
:10DB300032DB101801D8F80120200400F02EF9A3E0
:10DB4000E71632D01632CD0643C7F8805EC87C0592
:10DB5000321F6E32BF1C67BEF81872B96832B21A33
:10DB600032AF0672AE6832A71012A4A432726232CB
:10DB70009F109299C07296C032EBC0328E22728D85
:10DB800058328610328306728258327B105278C027
:10DB9000200278F843E708326116326F3C3E7090FD
:10DBA000041C037CFD00F01990046E00740E11201B
:10DBB00080060DF9206010BD0D3012324012213068
:10DBC0001264301A69CC1C02704709680C0B2E7164
:10DBD00048053D400C11142D5A0C21241252246F7B
:10DBE00057F98C051662A01DAE0A2298344D8E0B93
:10DBF0002D04034F5BF9D60910015BF9132819E6D0
:10DC00002C01FB01F0D6071F02BD0E0E3D14063C91
:10DC100001049D0534071C0900F04EF9D5E9000107
:10DC2000C4E90453033E324E053E0CEA05500100A0
:10DC3000F005081202081D360C11B21003001D7009
:10DC4000470C083C03F8B506000CF2053C01F4FF54
:10DC500005E4031EF030052D58041EEB940523380F
:10DC6000600A12E60A5C01FFF78BEA0316066E30C3
:10DC700001FFF7DC143001DCFF042212D8344D36EA
:10DC80000621342D040412C00A1E84A00D210C1C90
:10DC900001BAFF05C00D212032C43632BE1C230755
:10DCA000D11232BB1212B52232062232B31012AE9A
:10DCB00010215812A960211612A81083F1BDAC5290
:10DCC0009DAC5299AC7296AC329140B235AC328771
:10DCD000145286AC5282AC727EAC926AAC7264AC66
:10DCE000326E369269AC3265127260AC325D10529F
:10DCF00057AC5254AC3252AC5E38480743F0FE8AFF
:10DD00002304D00E124232322C3C323C3C52E11EF3
:10DD1000320660123214300700F072F81BE000E0A7
:10DD20002C3E122CE8215C52CD283205D0321E94B4
:10DD30003EED6E0652C01A2300D13272327852B4D0
:10DD40001832245A32066EB2AA6E23FCFE6E70019F
:10DD50004EF8146E43F5FE6EB2966E43E8FE6E41C9
:10DD60006029388D42066C02FFF794FE42066B3C38
:10DD7000F8765A3B6E3C0138F80130091C01FEF779
:10DD80000E7E086DC2111C0100F02DBC112D320356
:10DD900036030A5002B8FE0468B211A452587C1629
:10DDA000F13092102652A42632A026B24526216CCC
:10DDB0003A0BDA4DEA0BA008836000990173002149
:10DDC0004173AC21244D9A081C0408F8290014F171
:10DDD000E11D33F007B44D9A03AD6E084315F87E8C
:10DDE0006D860352103A4F0DF82E0A3E0D34111273
:10DDF0000B066C0416BD09780170DE03320C861028
:10DE00000540600060806001801D4004118823018E
:10DE100061201D3C1310011B61B1061C0C2BD307A4
:10DE200044BFA9F101039A18002342B80F2C04093A
:10DE30001FFAD1EFE7680943FF41801C04E2F900B3
:10DE4000208DF88B0D1C0120ADF8A1181C10F021BD
:10DE5000FA0500DFF8942303A928002B68DB6898F3
:10DE6000E61483E24A0E5C078046B6B2002E66D105
:10DE70001F8A085C0161D1DB76131E02FC081C19A5
:10DE800000510020FEF776FE0100D748B1FBF0F20A
:10DE900000FB1210D4490918D34881CC1323491C24
:10DEA000723C0189FFD11A163E870E0D8C0696FF33
:10DEB00006000DF10E00460F30013300C5704E2FE5
:10DEC000160F31123004C44ABDF80E101440016A16
:10DED000B8470C30052A68126B9047BE4CE361FFCF
:10DEE00044F200B54452B344B0032E68366AB044DD
:10DEF0001DFF1E11D46337D0D4200632D100223149
:10DF00000089B2F4129BF44307000E112E1D480F36
:10DF10001E066A0A1C023900A0485807F10076F272
:10DF2000009776F208967632397676364AA0043132
:10DF3000D00022414676E3414676128276F2000313
:10DF400076F2007976F2087876966ECCC30600E811
:10DF5000497A4C02D9FE2000C4083C0180B5677E96
:10DF60001114010CD118D64F61FD7C113C01E1FE6A
:10DF7000627C113E607C113E5F7C111D36091F439F
:10DF80008B3609594C5A254E11061DE91A1D1817D2
:10DF90003E06C8101001ACF84E7E30013000337ED2
:10DFA00012077E12397E2110217E3008814604AB93
:10DFB0000DF1120249462C42FE1C3232FE10058041
:10DFC000464246494645FE100984FEBDF810102021
:10DFD00000FEF77C0A32120A18017BFE3E061C0185
:10DFE0002268929C1161361E924E16C5283001435C
:10DFF000462F7E400C34682468A0470500ADB2006F
:10E000002D0AD11A362E30311C626A1C4306D114F7
:10E01000363238B001050020BC2122A305D16E2183
:10E0200012E30ED174F2081374F21211742403284F
:10E030000080B20B8C100683000031474643320447
:10E040002DC8162C0140420F4C111F2010F0122F2A
:10E05000C0C2B4162DCE031C03FEF7E3FD107E11E3
:10E060003D82152221101EEA58131C2303E00119DA
:10E0700000220A72401C0C28F9DB4E2020726F200F
:10E0800060727420A0722020E072732020736520DB
:10E09000607B1C3FA073880D3FBFECA4134D1E0492
:10E0A000140AFAFDDFF8D80A206014F5A260C8103F
:10E0B00003FD40F20C525A1D88114002FBFD642101
:10E0C000161A00301D940522FB064FAFFC260528CA
:10E0D00002DFF8A40A3A1C080FD140F21C50FEF7E8
:10E0E00043FCE405193C280CD3FFDFF88C1A0860C8
:10E0F00003E0DFF8840A406802DFF87C0A425EC56C
:10E10000560DAF002786191003FEF7FCFA21722383
:10E11000F2FD0C1C053AFCDFF8C41A88500B2D8C5C
:10E12000121C0112FE2034131D36051DFE0B320396
:10E1300012400220FE48E0981C041DFE814621E0AA
:10E1400094041F08200E0D100100F017243209243A
:10E150001005F7FD202100F00F102F01D1B00D6D3B
:10E16000560D2308D01E2F0EFE5C0B210A4006FA26
:10E17000FD070019F10809502C0404FE814518D24E
:10E18000DA0D12013A23F2D00A3C01FEFD0114130C
:10E1900012A49C3C0500F0CBFD202201300B1EC8D0
:10E1A0002C0332C15C1EC0820C340180B245C43CD9
:10E1B0000470B5ADF5067DEA0C71E01243D4180386
:10E1C0008CFA0026294A3D06193DAE1A3C051CD0A2
:10E1D0002A0092B2211206200273FC00A92623BF56
:10E1E000FB064002C5FB04000E1205081DDE0A20D6
:10E1F00007FD611B80B2081A041F0E1005C9FD2619
:10E200001A30000D661E70A4144550C700264E3605
:10E21000554E364B4E300793FBDFF878198842078E
:10E22000F03C0382FDADB2A8280D56184416A30297
:10E230003B0AE09A13D038D81284222E85961940D2
:10E240000126083722180594FD8742EED3308E70E0
:10E250000145B0F074C172121CE0217432117412C5
:10E260005974120474320F743248742598119A4EFE
:10E27000FB6214500555FD061930003084123984B4
:10E280002308E020300145FB0620600245FD861989
:10E2900080123980231AD29C32369C23F2D10C563C
:10E2A000329823D8FC06200444FD0228DEDB4252CB
:10E2B0002442123D422002DDE73000B414052DE96E
:10E2C000F24FADF50A982DF40D1245BA24054C23F2
:10E2D0004922462147661C09F90421B6FBF1F202E6
:10E2E000FB1162221982D00E1C03D2F1040189CEE7
:10E2F0001410011AFD47502004FCFC0700BFB20AAD
:10E30000280608FDC019001D861978100C701E0023
:10E310000B401C4FF4805101FB00F9121C040A96BB
:10E320009F0020384E131C0521684968884764B453
:10E330000F1E416C166385E0122D101B4C02DFF896
:10E34000E807E81A5C05B0EB090A0EE00068031C58
:10E3500003E7FC0200D2760B12CD04291823C0FC7F
:10E36000201C01FEF7535213280DE0FCFEF7B8FA0B
:10E37000824502D241F202085BF610010B0AE07AF4
:10E38000100A6000FB0BA0DFF89C170968C9602029
:10E390000A1BF1010BBBEB992FF1D35146AE2004C0
:10E3A000C5FC16EB0A010A2002C2FC8A9908400249
:10E3B000C0FC29001052941020049599002902D025
:10E3C0000C1EBCDE03200600F067FB388039881085
:10E3D0002002BAFC04A90823B8FC06127AA02C0279
:10E3E00092B251460A1032F512400471FC80B2021A
:10E3F00000121E2C1203200602D041F22A080CE063
:10E400001C18034CFC524601F42D580F4F4FFD7A57
:10E41000061C08F9F8404680B20DF50B7D2E032E40
:10E420008F8A0F1C07ADF5087D07008846144A0F38
:10E43000170026BA1D3204895C1645A23C05EEF889
:10E44000424692B239A80F2002DEFA02A914232A0A
:10E45000FA0610032EFA07004516300F2EFCC019DD
:10E460008E990F184FF6FC7010EA0502396CC3A4A0
:10E47000FC101EDCA2042201A02C030615F00300F0
:10E480009A072F21D1BE1C1002002107E02A20117B
:10E49000722A4012198A5C01ABCA54491C8142F5A8
:10E4A000D304224028022840C11950C37DFC1072B9
:10E4B000B54E233000D22208D21D141021D01F05E2
:10E4C000001A076E2452084DF0038335D0D612444B
:10E4D000BC1E8368141E925E1B214C200273FA013D
:10E4E000A91433BFF9061D101221084806C1F90509
:10E4F0001FDFF8C0052A2C03854205D2040A051146
:10E5000030600237FC04E00C63EDFA0A126C9222D0
:10E51000049250060401E041F20F0420988F70BD70
:10E520009604ED8604CF29D0A8048F38F896044FBE
:10E5300028FA96042374F9061E78101148040FD0A7
:10E54000DFF83415682DD20B29D41C01C96A8866FE
:10E55000081207721001050604063306067E5516DA
:10E560002DA6044DFA11480462260FE0711CE82F15
:10E5700073FB7009410C2F6DFB521212C7046C041F
:10E58000761E002EEDD50C031F61FB800E1323C0F9
:10E59000046FF1BD002010020025DFF8075D9A1F0F
:10E5A0001D8206510CBE078E043C09FDF7D5FF08FD
:10E5B000E0B0EB080201EE0E1E39F6182C06B7EBA0
:10E5C0000807002E2BD0E804140528D1B6F5805694
:10E5D000317A1DC80A1D0C1623F2D00C1DF6182224
:10E5E000FA123C07FBF8DFF848148842E7B0042031
:10E5F00002FFF88046089C08F9F8B8EB0008B8F16B
:10E600000100F0033C08F8B81B8045CAD33700D19D
:10E61000E80F1ECD2A104F80B2442028022DE9F4C5
:10E620004F0A15721F2428A6073EDB66162004FE3B
:10E63000F7D5F8361A085C0BD3F8070B3F03889818
:10E6400010EB070840C60344040980DFF8D4135ECA
:10E65000100819F10109B9F1040FF1DB1C2259323C
:10E660001008BAF8B0F58050B84207D2126E505078
:10E67000202006B1F10409BA46C346221EA79C20F9
:10E680001E11660D2E290C1312475A820A0C6308BC
:10E690000B0C1C07B9EB00094A46594650DC062012
:10E6A0000813FBB7F58057B8F58058401287401F14
:10E6B00002D35804C40109C1E75010012DFF2920DD
:10E6C0001270E0190E2403F888990918302398FA7B
:10E6D00010126C10300108183112200291FA44A96E
:10E6E0000863A1FA6E3607661E5AF20C1003BFB219
:10E6F0003A00441CD2D91C234CF81A32011C5F0B7F
:10E70000FB42041F04200E061EFD18143F00901249
:10E71000082805F804223018011F9636B9A6923150
:10E72000125FF0FA8A03220490440224F8A44944B8
:10E730004D00037E096A0449427E9BDA2149681E26
:10E74000FB5A161E0482052D54066FFFFA7406CC80
:10E7500004FFF98742F4D3A6082C04FDF7A9FE298B
:10E76000E0B2031C01FDF75A3A154F21D0BE032336
:10E7700097F9123C05DFFF8449884217F2061ECF45
:10E7800046145001BFB239622FFCF9E60B1DC812C6
:10E7900082FA142FF2F9D408680CC9FA7F1C15F517
:10E7A0008065B542D3D300203A2FF047501A1D623E
:10E7B0000B1DEC22412E12A95014011EE040B21C88
:10E7C00001B5F98260162D62151C011FFA8A0E062A
:10E7D0008C0200D17F1CC0082008A4F98145EBD32E
:10E7E000022F06DB2C1E9FEE11400821F816007642
:10E7F0001C18F1080822200493F980450DD21E2B25
:10E8000090F9FA6002142EF0D2661C0676F9814661
:10E81000DAE70027EE153C03A830F81710700B1D3F
:10E82000F60A2C0605007F1CB74202DA3C032BF1E6
:10E83000D0E43E06FC152D00154300253C2E588CD7
:10E84000193DC2142E64501A4003D06D1C08361AAC
:10E8500020045AF98642F2D3366D0A04BE161A1EF7
:10E860002C04FDF7FEFD291D400323F3F80E1401CF
:10E870003BFF32482D5C042DAC143005B6B2B042DB
:10E8800019D0154A164EAA3F0DE0FC0731183E0676
:10E8900008084F2EF95A064002D4F8083728163CCB
:10E8A000BC1C01EBD3F1941F1E6C68201E18400B9A
:10E8B0004DB408CF012528091C03FDF7C1FDF6065C
:10E8C000061E27EC0827211DB823B2F8166C02FAA1
:10E8D000FE114930094FEAF830095C0100266DBC91
:10E8E00004120B86410A1208683EDE9808A1262011
:10E8F000020837EFE7EE2D78082C02454C4946CC4C
:10E900000B1D7328AC030141617047F4201C06CD38
:10E91000F915F10C0160690224110A3E10E41C1E75
:10E92000E0E41C2DE2101C0202F8103058072D42C2
:10E93000101C0246FEF704CA22A310BD3C22D83C9C
:10E9400019EC4002F3FA60613C3403FEF716FB0059
:10E950004E2402E2FF31BD9A2DEA082310311A3EFF
:10E9600009B80B3C01B3F830E41B2C02B1F8288045
:10E9700086141D241B8EF9A41023B6F9065FBAF97C
:10E9800028112C054610460A460146422323B7F9B2
:10E990007E4D661D21241EE256252F0AD2061F2D0C
:10E9A0007C037E63F4172002DAF911E0081C01D21F
:10E9B000F9858824210A5E5D04251E4AEA06300195
:10E9C00010EBC5E26C01D9F973FA1D1DF22123A9E0
:10E9D00088B2500189FFE9081EA802221C03E868DA
:10E9E00020612802221E6802221E2802221E6802BE
:10E9F000222C08E8692062202215F1200108222536
:10EA00003C12C80E12400E155E17F0C6361E247E4C
:10EA1000141C0801E0491C521E72B10B78361F20ED
:10EA200008C09C4505D002D24FF0FF1A1D2A201DB8
:10EA300076111C023B002BED9A0D1D5E114E8B5C76
:10EA40001B11C61C02E0521C8A1622411E1002F83D
:10EA5000D110461E1DA81A2DE81D43008808652404
:10EA6000200412F8022803DB0A10010FF804EC144A
:10EA700003FDF72EFFA0A81D2A245150212E12803D
:10EA80003612C00423C1833A1E0C66121403CAFF57
:10EA900010EBC45811141DAC152DC0111C0380B50A
:10EAA000202224A615100369F901BD8110291C102C
:10EAB0000380B5C8224414225F146A832C3602D422
:10EAC0003C03F8FEA0682810143C01D0FFA85C0AA3
:10EAD0002D4005141EE880E068A8602069E86060A9
:10EAE000692861A0696861A08B2883E08B68832016
:10EAF0006AE86120222C16013411B0163530152C2D
:10EB0000110E1D22291D32031D4A1F2EB442121F51
:10EB100081B1EE20100118001D0C4F3BDC48121093
:10EB20000604E31852F8044B43042C04091FF9D1DE
:10EB3000EBE7DE2410221B4BF0B542F201641A4EC3
:10EB40001B4D5C613668F60723D522B3CE09F6016A
:10EB50001E60174F07E001F07C06441C22CB47F8EB
:10EB600006C0091D121F11F07C0F01D11E6B0EB9DA
:10EB7000002AF0D11D621E6AF607FCD4E5E7196091
:10EB800006962410019D609E422002FCD4001D2C9C
:10EB90002408002AF3D1D868204202D0AC1FF0BD6F
:10EBA000AE031C10BD00D00F40A0E10F4001004299
:10EBB000A400D10F400368101C0313F0030F09FCDD
:10EBC000221C0422BF13F8010B02231C0FCBB0EB55
:10EBD0000C00F3D07047121F22BF53F8040BDC2245
:10EBE0001805CB6045F7D0121DA02003BA9CFA8C03
:10EBF000FC221C0238BF6FF07A2A2ABF04E13E24AF
:10EC000004F6D0521C08BFF42F0180D41F1E01C28D
:10EC1000222DD21F1D94221406000C2210F108018F
:10EC20001874173CFE922D541D1E72541D1E205444
:10EC30001D1C0420FF2A01D108B8158C0C020E0AF5
:10EC400070020C4A70020A8A70C870581D1C022992
:10EC500000A08890241002F8A91CE0082FACF8D678
:10EC6000031C020C220830F822114C89523EB01AC3
:10EC7000142DF20A1D60142D4623117C1C1662F31C
:10EC80000F2262F31F42401810F0030308D0C91A84
:10EC90001FD3DB0748BFF0231C012D28BFB0231072
:10ECA000092D130030B4144615461039102005E91B
:10ECB0003C00FAD849070A1C020C0048BFB62340A2
:10ECC000012D89002841341630C03001C918180CB4
:10ECD00012CB2821084D60141E7560147D92052DFD
:10ECE000B2153DCC161DE61A4C03F83300EA1B564C
:10ECF000053C016AF8F14E042DF61421101E6BD468
:10ED0000034DF0036F66F89C1D5E63D0141F79F805
:10ED100052262C090001B58B0718D1121F21D36C84
:10ED200024200BA3F1013C2CEA030C1CF0803C04D2
:10ED30009E24013BF1E79A200ABCFA8CF1C1F1183C
:10ED4000018B40CB40162C0413E0042A09D3D824AD
:10ED50002F521EDA24800A5BB18B07F7D1DBE71252
:10ED60001D5AB1162C0803B1F8D111001CBF0022A6
:10ED70004A1DF504961C018003E03A0534020A0A94
:10ED800070489021E85E2F42164C0232F8C008C24B
:10ED9000211C0630B583B0D3E90045680D3C04451D
:10EDA00000F031F837001941E83C031600B5421174
:10EDB00060172FEAFF7A1C2DD4063E34CA041D18B2
:10EDC000131FFF02B80A21EC1C012FF866A81732A6
:10EDD000703865CE3626CE52380E1E23760A2108AC
:10EDE000200421F8281A32BD721E04DF2C540115AC
:10EDF000002A36100417F8DDE90623826223121276
:10EE0000828821A83E93F815210A4392F8B02D5C20
:10EE10000430072DE9FE4F04008946152C1E86AEEE
:10EE2000203E21120D3C0185F802EA223E8546165D
:10EE30001283AA3C01002D5948211C0381F8801B34
:10EE4000A8DC042118200881F84FE0A8198742396E
:10EE5000D21A1C0574F8B0EB5700B8AC1F2006009E
:10EE60002701E017EB57071C2C0200D2AF19861EB2
:10EE700025E648048046CDF8048002400243464A15
:10EE800046A2240666F882461AEBC50B0C165B0CEC
:10EE90001E5BB21321181DE00920019075190A3C70
:10EEA0001368F818EBC700A06018EBC5006060C4D9
:10EEB000F80080D1461274174743FF441E3F702B61
:10EEC0002C0216EBC502C6081270B43003FFF736E9
:10EED000FF102E24044846BDE8FE8F2A2D9C1D4DB0
:10EEE000B61D3C0116F800520A480416F803000645
:10EEF000AA7A100159F81430363E2C765F2C365E13
:10EF0000E61D000A4EFC28181C01FFF70528185CB6
:10EF1000037FF06040002C263D64051D10074FDD87
:10EF2000FB7A1B4F7CB5041E4D5E1E23E1FF6A2158
:10EF3000083E036820216A180139F876FE3DCC2688
:10EF40001DEA123E172A244F33F81E0D3640703644
:10EF500048E65001FFF7D7DE4004D3FFA91BCA10D3
:10EF6000BC30013CF873A4123D9A1C0230B405E099
:10EF7000DA0F1E45D00C1C0145491E72254003299D
:10EF8000F7D130BCBA5A31A03A31A0210A7C0137FE
:10EF9000F8027C1943A7FE623AA68E210A1C01F1F1
:10EFA000FE2078287E3152182C02FEF76FFBD81B0A
:10EFB0003C03FFF783FF1314252F80B53E251E1851
:10EFC0003219214E5218607222561DDC0D51B82B99
:10EFD000D2FE9E211E522126522136212E1D880945
:10EFE0002ED01A071202043C018842F91E0723F4AE
:10EFF000E7161D9403123D16823D1641781001005C
:10F00000F00A384406002818BFFDF738BB885EF1C7
:10F010002E2212E2082C010000054C181F1E04606D
:10F02000162F7047D6273001401E010C1E14A80968
:10F030008F1FB572271C0389B2019174AE093C037E
:10F040006E2364224928193C0110F806162E1C0173
:10F0500000F01B72044D5E2A161A862F04B0D414D9
:10F060001E28F12F7C0D1FB5099C0394089C029467
:10F07000079C019406E22B2002FDF79EFC2621A0AE
:10F080001203A023C1819A3C03FDF74EFB0A6809D5
:10F090002178F0020392B20392782D881C4E0972F7
:10F0A000156E82F82A217A520B842DB01C618412CD
:10F0B0003C8421EA43D1FF5845A2C1C68F07F8DC42
:10F0C0002E5F50092C299D8C2C5E01D01A1E0872CF
:10F0D0000520021A00029B1612C0C21001EEFD604C
:10F0E00036E710BD2412725E300364234C2242AC1A
:10F0F000677EFF2481A07288A0525CA0F30181FF8B
:10F10000F4C148F2025A487264485270486E5D8AEF
:10F110001BC2003E8395FFE412842C5C0170B58A0B
:10F1200070212D3C292D721D4D400A2DFE224D00CF
:10F13000293E2CFA28322D6C2D3C034C012AF83143
:10F14000841022F8261EC96C041E9260282D622E9F
:10F150001E5B9C171C034FF47A7006E60D1D7A1097
:10F160005DCE0D29561C04C06C80470AB084061E73
:10F17000BFB405195B2F00017C0B25E81BC9FBD42C
:10F180001D80283681F825647E01500B1EA0021CCC
:10F190001C0410FC291DA089C6031002FCA91DE057
:10F1A000081FD3FC80281C0101208A60244EFC80AB
:10F1B00028F40300FFF712FC317C1270F630037064
:10F1C00023412257F66C01C0FE089A17C401202083
:10F1D000833C67C6FE3C6F90097C17F40B00FFF779
:10F1E000BDFE218B0818801D80B21090C15CF70114
:10F1F00092FE90729C5456A4906795FE90C13E87F3
:10F20000CDFE9012B82C2D640E3C03ADF5866D0C2E
:10F21000C02245947691943401BAFF31941DBE0505
:10F220002226081EE46C062D8610210C1EE01A060C
:10F230005405BFB217EB080A577A1FBFB244104CEF
:10F240000C5F02DD41F2220684E0BFB20421974048
:10F25000152C0172002ACC0F4005090679E0042123
:10F26000B81442821430020A066FE0461F01817210
:10F2700010100341F20B0667102002002F23D18AE1
:10F280004B2AFF062DA8244D660C4FA7F8E2123A30
:10F29000A50E3A8A0E9A290E3801FA60350E5A32B6
:10F2A000062F40E0AA11200A1FFA89F9B0FBF9F0F5
:10F2B000BAF101010C2006B1FBF9F188421ED00C15
:10F2C00012BA1821081E09B6155C014846263210EC
:10F2D000700319F58060230C70010060200C500150
:10F2E00040601D0C2506140165F881062D36253D6C
:10F2F000EC2582FA0C6EAA8C102206CA63C5FECADF
:10F300005801C2FE31DA5241CC323FCCD224CC1665
:10F310000D962D5C0F2B00BFBC29C82D3C0E8DFC1B
:10F320000D2402FDF763FAD2200AA0FD80B2401935
:10F33000FDF7F2FB6061103298102804001DFDF704
:10F3400000FC7C2004FFF78FFD228B141003811D2D
:10F3500014F11A101ED9860A1E00A80C1E40DE0CDD
:10F360004F01829A051E7D8E0A1E1A200DE9D81AB9
:10F37000673E380366234322523EFB0154FD7C6BFB
:10F380005EFD7C5AC47CFF0157FD5404C1482F30F8
:10F39000FD20032D2C1FC002FEF798FA5072365044
:10F3A0004FD8091C3021163C012DFD055C1F1EFFA6
:10F3B00076126C04401980B232BD5C2EC15A8B5D4E
:10F3C000FDE03EEC0806F105D04D0E0383ECFC8811
:10F3D000D2548863F2FC8892F88863E9FC88723022
:10F3E00088F107EC4164F701BAFC3472C45C470C45
:10F3F0000A34C002BDFC02BDD0413E83F5FCD0F30F
:10F4000001200AD012432E300365236C22462EF2CF
:10F4100002846C728E6C522C6CF70187FCA0C14880
:10F420005C0160FC07E806C14C72684C52404C8C91
:10F430000261FC801CE006C1469297BC4F540AEC66
:10F440000428020A002B49BC10012BF82A1C1C03BB
:10F450000820FCF72C601B1E022E1C2F6EFC52276E
:10F460003A01DA23A1F81A521F1A92D31A32941AC7
:10F4700052121A838EFD1A32871A52051A83F1FE30
:10F480001A327A1A43F8FD1A834CFF1A326D1A5257
:10F49000EB1A929D1A4E60900D13BF58B82E1C4166
:10F4A0003848072AFDD041200870FAE7782C01324D
:10F4B000483306042E6D6A041C01806832B8081EA9
:10F4C000FC122A1C02FCF783FC44064EF85A091E63
:10F4D0006352161E0D2A0A1003FCF7DFFD292210C5
:10F4E000044EF60850CEF24C1E68C8262C05D040BB
:10F4F00068004725486404100D0968416122484F9F
:10F50000F40071816120481F122004C1611E4B006C
:10F5100022122C021D481E4C4E1E1807FEF74BF9F6
:10F52000FEF749F904AA1C052AF840F21440FCD859
:10F53000032DEA361C064FF4FF7100910323980552
:10F540001D7A332D300719221008E000244FF4E112
:10F5500050FCF77D24140103D0218E4240DE3F2071
:10F560000B200530010120090821D02C02400500A4
:10F57000C164041200391C0308ED00E0101C394C72
:10F5800003C0E60020243C072E022804140130B5F5
:10F5900091E01C0214989BB2D8301C07FB03F56065
:10F5A00035ADB20295422C1C08909BB2009389B2F3
:10F5B00092B2024226100310F160039B0C4D920997
:10F5C00038019FF845461C01206144CC1F1001A65C
:10F5D000F9430632A3063FA0F962061D5C291C0709
:10F5E0002BFAFDF7C2FF05000BBC0A4F93F8020887
:10F5F000300343FA05A90B082106100752FA03004D
:10F60000082231A1030C20024EFA0821081764FADF
:10F610007620036A04633149442C0B6AFC2061C0E4
:10F62000213C202E4A126892CC1819D45E04E6318F
:10F630001F8063AE031C030229490FF268125DE6C6
:10F64000311E11E0304DE0312DFA181A01BC4D1277
:10F650001CFD05E2312C0F04A8FCF784FF5FF0FFCE
:10F660003209A9A068184B1B3C21200328F6D109B8
:10F67000A91A2FA1FFF01A1E5C74051001010009E0
:10F680000A1C022EFAE9E7580850022280680F2A65
:10F690008D8A2A2DF40A1F252ACD3D4E0D383B2D8B
:10F6A000443B2D383B2DD03A2DA4084F180D7C3209
:10F6B0001D73391E029B39AC030210B584B0C20A17
:10F6C000455A2C0200F027FD840318022DE9F84367
:10F6D000681E6A70322C016921697A193C01002E7A
:10F6E000478429200286FD8146081E6D4C1D1EBEE2
:10F6F000DA0D1C05B04600E0B846B9F41E1C10280F
:10F70000D0C5F81080B14500D3B146B14503D2B998
:10F7100045F80D10182300E00123DBB24A46A86823
:10F72000E96841186069D4F80CC0E047B145202071
:10F7300010091ED2B6EB0906B7EB09094E2C60087A
:10F74000B146FFE701234A46E9682614110EE02876
:10F7500069B0420BD1287DC00708D500202861017F
:10F760003681201002BDE8F183AA5E4F5C101E6A4C
:10F7700008221C122E1ED0A06986420BD3E069A17C
:10F78000694018864206D22994381DC42B1DC0201A
:10F790003C01824644D81510031BFD8046A8721216
:10F7A000C3BC3003AB465A463122400492FDDA46D0
:10F7B00034E0F0638146289005012342467868F9D9
:10F7C000BC10018346BBEE300103D059243C034BEF
:10F7D000FDCB45179E1512042E2DFC1FF30110D0F2
:10F7E00034368122300103D0493432318C210A135E
:10F7F000CAFC34112A3009431842460221A068D4B9
:10F80000F80462415C1C010CFD50AC0E2FF28F3EDF
:10F810001131DE11FE7203263206B61EA934065CD3
:10F82000017019F23E112F206A38112D4C101EEE76
:10F830004E052C02FFF71BFFAA372D9618852421B1
:10F840003612AE782002A84505D3A61C0140183018
:10F8500064101A02461E3050032D1C183D900615E8
:10F86000FC1D8F0E1761E24825F03F12FD762671D0
:10F87000661E28A21090051022FCF7F9FC701640B5
:10F8800002002D03D08032BF806002DBFE70BD4ECF
:10F890002146580145FC315CA18E12478E16B0906E
:10F8A00016C19036B12A440204D04A46B82F7BFCD8
:10F8B000B00FA3F2834690013BFC32D41C031F001F
:10F8C000A0460256201C0E28D3042D1BD00DD305B4
:10F8D0002D0FD022E098F80C051D3C1C123AA81EF2
:10F8E0004032092004EBFE20E017E00A500158FFE7
:10F8F0001B1E4303D01CF0010061FF0A301E65DCB3
:10F900001B4FFFE70C301001D8F808042574251EA2
:10F910006F0000C2111DA61C1C08000570DFF82C2A
:10F92000000660EDB6181C0502D0EDB2012D0B7873
:10F930001F1E1888052D563B2D48301C010020DF66
:10F940000A062DEE352DB8121E34800E4FB80298DF
:10F95000378F6FFC200C2DCA051F3EFC36361D72FA
:10F9600038140108010C5A2F3CFCA23825762D24AE
:10F97000051F0CB436351D001F2C0D01900A4600E2
:10F980009401AB00A90748784418842B1C01FC00A3
:10F990009996231C1C7000285CBF0098001B16BCA5
:10F9A0005DF80CFBB3C8FFFF30B45F4AD268921C0D
:10F9B00000230CB405140402F8134012EB7B1C0264
:10F9C0002565708B6819231C5C122C045B1C082BAA
:10F9D000F0DB2410327F8A1C0200A95348463713FB
:10F9E000FF51061F45FF6E181C03D20500FFE71EDE
:10F9F000401C1C20019900E06D1E002D09D0025D05
:10FA00004B4BCA54401C491CB1F5006FF4D1002186
:10FA1000F21B411245321C01FAFE30C40711E82DD9
:10FA200034372D0C111D920D1F0300BA251E29120B
:10FA3000232C11291CD002292AD007296CD008298F
:10FA40006AD06AE03A48AC2C1C013A483ADC371ECE
:10FA50003A540B1C0350F0020038CC0612324A1004
:10FA600001E4FE37063C01E1FE361C26200154E08D
:10FA70002F081F702F1A07500101602F2C122D2CF8
:10FA8000322E201C0544E0996A0C6B2B7606140874
:10FA90004118B1F5806F03D928491410066039E088
:10FAA000DB68020025302C022649411866151EC06D
:10FAB000E81012211010012818203EFD0996051E9D
:10FAC000B96C07100121F817522004814212D31794
:10FAD00049142C04D9FC1348066894051C0192FAB9
:10FAE00086BA193C0100221134283001F1FD0D863F
:10FAF0001801280001343F00201E0E4E00B4402D96
:10FB00008C052D74401640F81220042208142D1084
:10FB10003B11081224082E1870401C08E20020D265
:10FB2000B2002A01D0012A184C18002210F07043AC
:10FB30000003000B53EA401089B250EA810050F0F4
:10FB4000007002803C141C04A56A95F82B10FE245A
:10FB50001204041E2496064E6BD427411612781602
:10FB60001C0E78341B685B6A9847F00316D5012297
:10FB70000521BC1911FA23CEFF2210032868DFF8F3
:10FB800058361C02D2F8B020CE061F2302FC171CE8
:10FB900001E068A40608100A01200AE016F4602FAC
:10FBA00006D0002308532206182D42046178322A19
:10FBB00040521876630200125204722C040120682D
:10FBC00073688AEE202C01688A409E061226D01C9B
:10FBD00001266A8A4A042C098200230521606924CF
:10FBE00069A0470E1B120E22100300280BD102320F
:10FBF00060024FF481724A2004BC331B681B6B4ABD
:10FC00004D3A042176322C1A83A023764112639058
:10FC100033761001A873EA6432E8641001E069A445
:10FC2000646F0120AE041005A66A5FF4803096FC74
:10FC30001DFC342C030988400542A4042D9E041C9D
:10FC40000158FF9688201DFE261C010935FAA022C6
:10FC500040010703D518128818F2022C1863B7FF69
:10FC600094200201202873EC217A1EA0EA034B05A0
:10FC7000D03A654A1F28758C171F6A0EEE2210179E
:10FC80000F2904D010E0517880F82D100CE0117885
:10FC9000090604D55178090180F04303E00A4C02BB
:10FCA0002B10FFE7D4176002A56A287D4E760180ED
:10FCB000214E2DE00A2116520716721012B20812B8
:10FCC0001007A06A018A89060DD59056F402030038
:10FCD000689B4AEA56101A4D7E142E0ACC153C0435
:10FCE0002E04D0A86A4150301C019CFC3072162DA5
:10FCF000541A3C09A06A8C4981608C494160887E15
:10FD00003B4DA02C11081282041E754818110C20BE
:10FD10000280F829100612280613418318210412C4
:10FD2000621C110810014162201A10012A101006ED
:10FD300010012B103006322C2C1F2D10263D3C3488
:10FD40006B22880A8162884A818168A279CA71A17E
:10FD500088022291FBF2F1826811724168226A8A5C
:10FD6000634168626ACA634068446401F0A0FA2192
:10FD7000006B4801F0B238352FF8B5C6231C068653
:10FD80006A412C02D2707B06091DEE371C0122E06D
:10FD900023000C15D01C061030685D4F3F68FFDE55
:10FDA0002B1C0110F1018E072C04718A61187182DD
:10FDB000A00538030AD00220706E41284B534B6CCB
:10FDC00021282E0176151D04073EF25A062F82B017
:10FDD000E0051001846A94B848022068494A7A40D4
:10FDE000040700F80331D51476445A4006804600D3
:10FDF0009600AB2A00181E3E080A1C01AD6AA8CE68
:10FE00001E1D623D50024515D13A185B384BAC427D
:10FE100022101234101E9BC6401E00A0033E14A0E8
:10FE2000033001FEFD15881DC40511882D6E36A115
:10FE3000E8D2B0E8122CC0B223E812F1E872F1E87F
:10FE400052B0E82128F20419E85001806A40542C8D
:10FE50000100E040AE1CB36A80106710B50056097F
:10FE6000005001C00308FE8A0558114C3E10EE04F4
:10FE70001F054043452E010C45126C041E117445AC
:10FE80002D8C3B454E2DAA242C0E17009846154864
:10FE90002860A5F80C800A9CEC81AE2C1C0B404617
:10FEA000FCF724FA291D0091BFB23B2C2523320018
:10FEB000161C0541460C4E3668B0D6041EA4EC0B49
:10FEC0002C02FCF713FA14071C050091099B089AF1
:10FED000A436243E04B60C2D840825261C0100BF40
:10FEE000D064051E58D40A6D661A2C0101F0DF4259
:10FEF0003A2DE4051C0E602068B04203D3206880D0
:10FF00001B2060F8E7FFFE111D96044C01F0CAF9B2
:10FF1000EE30210A2D543D3EA0C007211A1EBDB669
:10FF20001C1C064368190083681A0066381C01D33C
:10FF3000881A1A094C0368801A0818A2032C022098
:10FF400068451E0C042FEDFFD216C12A32012A1D6E
:10FF5000F8101004004B6818008B181C089042021F
:10FF6000D2101A401E07E0DE054ED1DE0520020940
:10FF700068081A26214E1C05A068E168405C05024D
:10FF8000211A01061208582F9DFFDC3C8E32A8432F
:10FF90001C02200700B7942521746C06E6FF7855F3
:10FFA0007F1CF7E72C1B21141EA912181003AE4268
:10FFB00000D32E444331004490017BFF702212A4F1
:10FFC0002216600C1C036060606821BE362303D3D8
:10FFD000081C03401A6060AE621F50056068401C38
:10FFE000A060A01A21084C02401AA060E804120D7B
:10FFF000382002E16845549EF00500201DFFF74FB0
:020000040001F9
:10000000FF319823795D6443E8FF982C070260C1B3
:1000100060002383604388409D7C411E01FE332D98
:100020003E108DE0086C02FBF7CCFFE0082D282C79
:1000300019281C1D4F93B0804602AE002014461DA7
:10004000460291B0610DF1300A0AE014F8011B027A
:1000500098C047A6071D423C1C01B481B008371C5C
:100060000BB061207808B9B069AEE12528EE6C1FAD
:100070001C07F0603061706101E040483B11301CAA
:10008000081F2029F9D023290DD02B7E0510072D1C
:100090002906D030290AD00C1E1E0232211005EE8E
:1000A000E740F00400FA0610010800F7061C0410EF
:1000B00000F4E72A29F4441C02680A1D2AC6421FDC
:1000C0003162D2442001D54942261C05316280B2FA
:1000D000641C13B8231C0431620BE0316AE41D1F59
:1000E000439998182C1B01EB810302EB4301303933
:1000F0003162641C2278A2F130010A29EED3217802
:100100002E2903621E200231F1611EBA50021F2AFD
:1001100029065A2004641C0968F1614CF00401F1BD
:10012000610BE0F1694CA3F1614C1C07B0840FF244
:100130008030217801663C1308B14C10040B8DF817
:100140002E009D041C05682804BF207868A82C2375
:100150006220141C10641C0CA8B0602278252A139D
:10016000D0582A34D0632AC4141C1080642A18BFC3
:10017000692A68D06F2A2BD0702A20D073762A1271
:1001800075141C0F782A23D09FE0F068411CF160A1
:10019000252197E02800441C0629600068F2697058
:1001A0006038151FD501204019B02F2101C0361825
:1001B00002281ABF71125003F0693061912A1F782A
:1001C00021E8441005900CA870606EE08E30083075
:1001D0006C2B08BF286811D071081C0A02D028684F
:1001E0006A2B0AD1C01D20F0E834140260014601D8
:1001F000F41C012860D16C2A4302E06A2C030190B0
:10020000682B02F82240028803E0620A2C0278017F
:100210009096BE431C0E073FD5019800283CD04263
:10022000F02000782838D4452006302100F80A1044
:10023000401CB0110A23202E761F006256111E6842
:10024000620B520B961D68245300090C12B00C72FD
:1002500003D81DDA0940012804D5F060062D210DD0
:10026000E0B08C81071050052B2105E0C007050E7A
:1002700032206A1C02F0680CA91C431F60119227EF
:100280002DD21C56152C69202124760B40210E43BB
:1002900022B10E219E1401306AF1302008716940AC
:1002A0001A3169A0EB0109D61405641C40070FD46C
:1002B00020AC1D27051DF8241DC60E2C01AA01A97E
:1002C0001E2516B9621E4A5C2518044F45F4DBF75B
:1002D00068F01D6C2B9A1BF04B3CD0EE30057F1E56
:1002E000002FF2D130421E4F922BA37769462C0388
:1002F00096F840BB0B902B114690053769D6F80451
:10030000B0094683D0B14423F3D190500440077F15
:10031000F55FAE9022E07E8002BFF657AE50126EBF
:10032000963EF328212E138225181F8FF0B4C26841
:100330006F2908BF082405D041F02003782B14BF93
:100340000A2410240668182337466429681C1229D9
:1003500002D1002E48BF7F425FB9056A4DB9082C13
:1003600027D19014081E09C2211C2B30211723D13C
:10037000751FE0B7FBF4F604FB167730375D1EFF00
:10038000B22B463A2FA4BFA1F1510C6744AF5437AA
:100390000003D085689E18B552255001082C093CF1
:1003A0001C0305D5995C3044091C055B1E3021995E
:1003B00054C3C81F2C1941619A188260026A914285
:1003C00008DA511A81614FF6EF72018D11400185F3
:1003D000F01E471F2A0EF808100F282002F0140202
:1003E000102A08D1426A0369D21A83042006531ADC
:1003F000012BA8BF8361261DC2041C04460D4616AE
:10040000461FC646140104E0E81C26E81C1402201E
:1004100047B116341E685A061F6860B42626D100FC
:100420001405F2BD686C747A4C271DB00D3C02AA0D
:1004300040680578111D700D1DE6031C0203485F1E
:10044000F0A0291C026001BD687C061E04DC124D70
:100450001C051C02DFF8100AD80C1E61F60D1108ED
:100460001241081C01000A059E301003F809696C4E
:1004700041081FF0095C031C0672DFF8980B007836
:1004800003C4031DC80A2E0BDC0C1001DFF8881210
:100490001C01022820FE2A1C03800B00F014E2300D
:1004A0001278081C0350FF01F0432E2A12681E2DFB
:1004B0007A2B3001DFF8602812043A1C015C0B0132
:1004C000E6122D043112540A300322FADFF8444CAC
:1004D0001D001C12FE502C07094069696B11EB804E
:1004E0000004491C01060070743B1001406807A21B
:1004F000126C842D8E093001DFF8640A124F0A3223
:10050000580A10094E10F87910F0C000C0280A608F
:100510001C014409900A0B1E5056051003DFF838E1
:1005200019810C12096C3230161E1027383001DF89
:10053000F824162002DFF8CC0A9412249E1C01C86D
:100540000A01BE401D522C11081005A1F82F21DF11
:10055000F8B80A1F62F8E612100231DFF8AC0C128C
:10056000891E12A4082E04F4411C04FF1E21B0FBB6
:10057000F1203A2E00D23111161C01F3F83C781309
:100580004C0103FEF1E20A1D560B1001DFF874184E
:1005900012AF361401B408053C4DEA0A1C04DFF81A
:1005A000A80890F8670813282C76129C0C140250A7
:1005B00000401C4E1318810A11FE3112160A282120
:1005C000421234421216423274161001142812DEFE
:1005D000636808FC1F5C08B00F2E6A344A1C03DFF6
:1005E000F85008405C0C1F4C183C151D742C4D6ACB
:1005F0002121B82C01050040220E1EAB8A0C222AB4
:10060000521294521F06F9AE091008282ED02878ED
:1006100060210842133E12144A1D7E151DAE411280
:10062000293632044C3C010028122E4C1E1A2C098B
:100630001D7E381409FF16E068780D2810D26878FE
:10064000762F1A51E21F51301001D4076A141C038F
:10065000443A53F8225C093202301E7C760721842A
:1006600021741DA6171FF0FAD2142F207ADA312533
:10067000701C011FD304C810100524D305285AD0BC
:10068000633010012072E07E100908D5E068400058
:100690004008E060E1801C03EC0901F0540C3023B9
:1006A00002D550600297FF4FE00C100191FF4934D2
:1006B0001D722133FB45082008ACFB41E0606A4114
:1006C0002802D3EC12010C21F223226A7C12A446E8
:1006D00034078EF8606A402816D2019612941210E0
:1006E00001A7F804741DB8202E69324016A0445C9E
:1006F000040DD0A16A60682E4D440320A06205E07D
:10070000C412642E1D3227100598216A40182062F9
:100710005A1E99840830066209E0680707D504224A
:100720001F4409B44522FFC441F23A94661001FD0A
:100730000084082DD8491E4F7E091280682F03D0EF
:10074000C2081E89A8131E60C849180800200500A9
:10075000082D04D22819FA5C04766D1CF8E731C420
:100760000B2D8E035A26422C09E80801F051F82877
:100770007810F01FDA0D11441E02E0162C0205D38A
:100780002AE0EC0D1DDC231700290221081C01259D
:10079000E02802032F7F0088312408002F02D0BFF9
:1007A000B2102F03DB2E8C0AB7FE1EE0A888C0F320
:1007B000C01080B2AE452DAA1C1E0FE43C500308A9
:1007C000603818904C3603BA1F9FFEBC251C0120D0
:1007D0007062E82A26625E6C04B3FABDE8F381BA5F
:1007E0001247260046124C9A92049A12029A540911
:1007F0000ED052E0A878C00706D5960412860849A4
:1008000010500174FE48A26F8046F2375E047238C1
:1008100043110FAAF0080162FE31E0688800282A1F
:10082000D1B03E07640B21B21E0740234F00000ADF
:10083000041C01002F0A1A492300521C1C025FEA03
:1008400008116C031D614D14010DFF0DBE811412C2
:10085000A0144303FFDE400230FE04E00A5C022BDA
:10086000FEFFE7542CB1DA12742EE397FFDA9236CA
:10087000DA2DC61181DAF4010807FE2C7C3001F96B
:10088000FD19D2F70D12D1823201CE419863DFFDFE
:10089000A243DAFDA2A370B5A01FD4067C141C01EC
:1008A000FF68885E116C0740F0600420307270BDF4
:1008B000501648042700386880463C12AC281A338A
:1008C000981C0206006888A2181C020AC0B201889F
:1008D00005200E52D3032837D008D34EE0D8F83085
:1008E0000038620610030078786254A82383460E0D
:1008F000200C82469AF811005FFA8BFB834507D3E0
:10090000881E96FA151A380C2002786219E0181E13
:10091000D842141E50BE451D3C431C012087F88B55
:100920005211062C014C00D966191D46042F38625D
:10093000BE24100792FF786287F84DB0018016261A
:100940003C1C01C1B2A8EE271E371C1E1DBE2F1F66
:100950000F03FE0A1D0E3E151E1001D8F8384C324A
:10096000298A410A218E120D183DDA141D600413E4
:1009700078680C7D58041C0350FD12E038B0031C4D
:10098000040FD0E888796AD6422C03D2E8887862CE
:100990009C1121541D781822F9282DA4481D681790
:1009A0001D04083C010200CDC4392C0104D0CB94B5
:1009B0001F2E6B28441DD4051C013037E038182D3C
:1009C000FE4540022032E0C51A1C08680078801EEF
:1009D000022790FBF7440B2EC02E1F1C056B401EF8
:1009E000B0FBF4F0184A2C04FB05F0401CBBBA0E17
:1009F0001F6BB88E292142500116E0B7382D82298D
:100A00001C0D0600A6420BD213EB4600408892B2A2
:100A1000904237140389B206FB05D42002761CF1FC
:100A2000E7306FF0BC022945A01F0C05101B22FE09
:100A3000D41EE66016CF70B5FA031FEC04FA421319
:100A4000FEF0BA1E03F4042DF408200202E030691F
:100A5000089E019C031EE546256D9A165803260044
:100A600030680724114B1408F035FE3068006B40E5
:100A70007C69FE1D260D22D26A1401B1FC37E81CE8
:100A80000130613090047C032BD0688879680716A8
:100A900080FC45C01403814696F84E7C1C0112D19F
:100AA00099DC204D56074B06D1F83A01F83E057EF9
:100AB000042D4A07210E91462E1C4417200192FF57
:100AC000F8B61C04D031697068FA40062DF018E1C0
:100AD000DE1210A0A3E5FDDE1E0CA4047C0908288C
:100AE00005DAA8888019007E8D8E04A00258FC06C5
:100AF000E0F2326CF21C01F14F8234231C020298A6
:100B0000824628494001008346F61FB803A62D1FE0
:100B1000FDDA743B6002DBF83410DA15BE3D0039B3
:100B20001F59FE1A031D000E2C04474538D201AB95
:100B3000BE1A3E3998172F9DFE4A1234032CD0B0AE
:100B400078A12A300327D1F078610A1C0322D1B0A2
:100B5000788192462C0C89F919EB0A00F17801761C
:100B6000F3784A46F64F1C01504601C42821A63AA4
:100B70009DA81C010CD0DB6E172D1445140762884C
:100B8000D2B2A188C9B2DA4E11141C0230984704BF
:100B9000AC0A23C4E7CC4804F2FBBDE8F78F04217C
:100BA000B21EC2F81B2362FD1A4FE5FB982E2E22BF
:100BB0005C161C027221484034181C01412D01D0E2
:100BC000061C0305001D4800A418121C1410054043
:100BD0001B1A49486219101C052818184908622B6D
:100BE00040151001002183461C014FFD403C3B2D68
:100BF0003C11300100217F5610031CE00F48044CCB
:100C000010014FF48514127A142F58FD4C4E1640E3
:100C1000FA1C010ED0082C1C2D2A1D1C0706488129
:100C20006A05484068041A112DFA1B1DDD1C4C0191
:100C300021816208161D8E272E200C231684BA10DF
:100C4000019A48024C1C05994890F84D00975E1691
:100C50002F496B0008B001814694AA1291201D769D
:100C60000A1002282ED18E0A1D18041F28294A4A6C
:100C70001C038B49096A093A0F2F2FF818041C0925
:100C800086FDADF80200092D01D22FC60B10070911
:100C9000273B0000AA002152A04FEDFC42041005A2
:100CA0000088B84208D17E8A140380F84C107C1268
:100CB000100680F84B1002E0794810100370EF1B0B
:100CC00000E03A30022F3AD07564113422108C14AF
:100CD000018246BA8A1001704991343003401A06E5
:100CE000006E8C15861C041040188046B7C0291071
:100CF000073E00330042460021376C3003B7FCBF8B
:100D00001B6522100330186349810832620E1144BA
:100D10002610FA3001CED15E5E1001401C5C1E50E0
:100D2000014B005A8E3401C2E75888165688325556
:100D3000221D18451F1088A82311C21D3A141250F5
:100D40001E2D5208B24E9C1D1E4033464A601F079E
:100D500000D823170047BC85B012139044028AFCC8
:100D60001CE0AA12100E740183FC3EAA563CAA167F
:100D70003AAA1639AA5638AA3636AA3634E41C02DC
:100D8000BDE8FF87F8571DC0121F010099321DD41E
:100D9000124DD40B3E2DFA04100103D12854100338
:100DA000A9FB4BE029101001060027461D61391DE3
:100DB0004C091E25AC182C01A6FBE84A0E116C1E2E
:100DC00002E23A1EF19E0812A81043306A101E314A
:100DD0004C0A5003A80605D5701012711020032884
:100DE0000716D517A01F1C168C1832160A12140AE3
:100DF00012114E10018EFA12101E05921A11C81D02
:100E00005C181E05B20310014CF808801EF758410B
:100E10002DC0091208261001F3FAB0502DD0161C6F
:100E2000013800B244332D8E321C01054014385471
:100E30004B980D781E2C64181230041C05244909A7
:100E4000780029100C0B1C050800062809D2212067
:100E500019500341F8202020081C05401CF3E71B13
:100E60004901481A1D30292DAE1E3C0800062B0CE6
:100E7000DA184850F823181B3004154840F823208E
:100E8000064C05105B1CF0E7062BFE052D00144DEB
:100E90008E052D54553C0120180D561910050500DE
:100EA000062D0EDA083E12253E1E07242032060CBF
:100EB0001C03044A52F82582061C016D1CEEA6098B
:100EC00012419812D0AC12E8044F28EB141B2F915A
:100ED000FECC1E210A32880A1F1549E00A1C02D1E5
:100EE000086840C417500122E0050C600300301C64
:100EF000E0061810022016E00FA22C060C4801682C
:100F000041F00201AA461C0310280DD3A0B2321CE6
:100F10000A0FF22002490952F82110103828041D46
:100F200088081E02D2172D082A2E248C201D464424
:100F3000100300E100E00404120804120C04121073
:100F400004217E1E51E4261C080278C9B28A421A86
:100F5000B11CBF9E2A1C012FF9E7DE2E2DD81A1DC9
:100F6000B55C1F010344102DB42A1C131B89B181E9
:100F700007FAD10268B2F10131914311F0803F04C8
:100F8000BF2C0520012FF6E71E2311B1062002FB1E
:100F9000E7C01A382C03C9B28307065C302ED3EEA3
:100FA0002A1C0E9942F7D11FE0083A13D302F1042C
:100FB0000241EA2C0E2C01EA014124311DD62E9C5F
:100FC00001BF4B40D42E1C013FF3D0481C20011F11
:100FD0000832381C09521E28BF91EA030FF8D818AE
:100FE0006E301003401E704718B01C08704111F19C
:100FF000805F1ED10106D80C1C1222C0F307238982
:101000000DD31841EA431343F0844301241C981381
:101010001DA01410099B5B1C0093009B102BF9D39F
:1010200024132010222804401040F0844064240639
:1010300011BD010F0FF2682230640282B2000C3041
:101040001D84501C01430A6092181C0AE0009A5249
:101050001C0092009A102AF9D2541F22EAD42111BE
:1010600036617E1304D1542D72071E212A40114A85
:101070001F2C22A0523006065118800D40EA41660E
:101080001D9405157C216050010A68836212036279
:10109000271043942C020138FDD1402D1EF0F63F5D
:1010A000100FB031196E1A6F002A4CBF02F0700693
:1010B00001F030D813A401041E513A0F1C0341560D
:1010C000B1102EEA3A1C182E50D0302E6BD0602E64
:1010D0006CD0702E6DD06FE00FF2C415C1F3841088
:1010E000552C041D10401C095105EA020616F1009A
:1010F0004F04D0112F2C25D40E0500F182801E68DC
:10110000594F2640BE425AD1514C23686468C4F3FB
:10111000042604F01F04761C641C74436400A808B1
:10112000101D9C05C3F389234343A40D9B0A04FBB4
:10113000003064E01E6816F0E04F1DBF1E682640B8
:10114000B6EC20024948CED00C1C04AE4202BF1DB2
:1011500068B0221D821E1C031D682540859447E04F
:101160000C1868000401D14248BDE74248BBE73A89
:10117000F0010E3E48B13A1C0C3648A0E736489EB6
:10118000E747F230509BE76822130098061C0100E5
:101190004095FC061C03F0BD5E6ED3465210070658
:1011A000F01F07C6F3481C1E5C34051EBF1B6823D6
:1011B00040B3821C0C0CF102035843BB1C03E07BC0
:1011C0001C0CFB844911D01C02F3F07304B43113DE
:1011D0000833061410800841F480014B0218D50032
:1011E0002A11D553000CD524170313241603242CDD
:1011F0001805D4090503D44000C2F3865104E0C2A7
:10120000F3C55101E0C1F3C351491CA40F1C01F007
:10121000BD1264033C0221F4804168561D11601C1C
:10122000050F4000E60F406044331300E0041C014A
:1012300000FF706E081DEF1D1F0110592C1E808CC1
:10124000041C0210C0E1E4115C1EB7ED1C1C06F486
:101250000070383900C0C6215F1002093D007030AF
:1012600012400412440422483C114412040412089F
:10127000042D94421C0400201C008084CA2B1C03F3
:10128000802500999E395D334038382F0080315DCC
:101290001D50061E4B20071C04204E00808D5BE96C
:1012A000041D655C12807B13127A1C40037D008054
:1012B0009698741F80BBCC5D3003CE00647ADA80D0
:1012C0001C2E0000FA0080A81201002D310100360A
:1012D0006E0140787D0130B500F10E0410182578BC
:1012E0002170039901290CBF03700380257030BD64
:1012F000401CD60A2C097814BF41F0040101F0FB10
:101300000132471B0A064A1C09F10B0213780B43F2
:101310001370CA0574091C01F581601A4F136088A7
:101320000C2E01540C26021C1C07817A00F20C4082
:101330000268D202061404027842F00102761F719C
:1013400002E41153B002164268161C0300710260D9
:1013500008DA2E1002821D1388543C0D804FF6FED1
:101360007330F8082F03EA114111432A341005881D
:10137000808806E008186A2C0B7100F583700988D4
:10138000008841EA0040A2191399B9161F70D1A232
:101390001C1003017841F040A443D1060C12800CCC
:1013A00010015107130C21BC520E40200602F024FC
:1013B000040B78A34348300F0B70120C017802F035
:1013C0004C029143017010BD294C213C32603060C9
:1013D00004B2F5005F05D1141F1001BE3A11362189
:1013E0000C36200C61302160521630520930100149
:1013F00001F0CF244194520838500101F09F14218C
:101400009C3D2A37421FB4410C300101F0BF0C2132
:10141000041403081899041A5C1C0180710AF2571D
:101420001EDA983414038021DA06488C1003140164
:1014300003D41A102192100313F4407F080A1E40AF
:10144000441D2303117A10014021196E3282369215
:101450005A36722836B220361207362C0183708035
:10146000324D3E475A0B1C09460698D5080E098096
:101470000409D55A251F90623406100111F8020A9A
:101480001C022B4664227415110A126314520714AD
:1014900012660C1E01480B1E31C4381BD9E64C19CC
:1014A000401D8C081C097401F58374245AE407025A
:1014B000D4E21F1C14603CE00C1804F584742488EA
:1014C0001D68AC4228BF2C4600EB9197071D940580
:1014D0001E2C2A051E78E2301C021B641EFA420DE7
:1014E000200630BD31B902B108219E21D03605B8A1
:1014F000453E36FE1E41641C0D022401240D1805D4
:10150000F581752D78254200061741521003002BF6
:1015100003E0124E500101705B502DC614340730A9
:10152000BD0B1803F5817331B21D9C0D1C06070419
:10153000D4D0B207E018880F4F02D5BC381EC20EB7
:10154000062F1870E0061E03A0091F1C14E0032ECE
:1015500021C02710034C04054048042F30B4C82193
:101560001C07027810180A685C6854A0121C0F123D
:10157000880C685D6855F824406468121990420F21
:1015800012061C07521C0A600A681C78A2782561A2
:10159000281C0152681018211DD6202E0066228DAD
:1015A000FE232E1FCC582DF0491D4C0C2D000F2F63
:1015B0000090CA101C0117D098122A1E042A481E37
:1015C00098DE0A1EEDF03A1F07D14E262C07D100F7
:1015D000983860404609E0B23E4F424688321EB518
:1015E000E6521EE414052D20241D0C331E23762301
:1015F0001004231A000B789A7E1F4B6844133C0793
:10160000301B881818521CF5E7F6152D300E1DB644
:101610000C2D620E1005207886420ED22A821F50B1
:10162000F80E104288081DB8131C04F05FFAC019A8
:1016300007CC3C3EEDF0512DB60B61AE41A61D3AF4
:10164000545002788045243C52283C32283C2F419B
:10165000FAB8341C05090086420FD2C794341DDE47
:1016600026F2030328100246FA05E0283004091880
:10167000F10108D7C08FF087FC581E16D60F1C0149
:1016800006D13BB1063E04EA2A8C02BDFF06E09477
:10169000541D142D42FF987382B09A4EAB4A342DDC
:1016A000DC4E4D8426161C461C01040087961C1C2B
:1016B00001002017A2093C018246C15825140110DF
:1016C000D0995E2D560A1C01BA45011854540509DB
:1016D000E01AF1010A4A501E0DC45332EB90140176
:1016E000F687F0F0121CF4180805000A2D18D2E84D
:1016F0000601D5F21D00033C0D082615F0EF07BECC
:10170000404643A6420AD30892161C03700010609C
:1017100055481B1C0107E0160423240204E06D1C3D
:10172000961E10080A2DAA0F181410B4847814F00D
:101730000F040C6084886405640D146084782406AA
:10174000782C01F400544C2A10011C60C4201C04A5
:101750000304E4B2002C4C3B1C062C08D011D3032C
:101760002C0A362130071C6854F440741C600B0AA4
:1017700012800A32060A12000A12010A2F1C603671
:101780003A2DC40E1EA6C40E1F2698A40B176C82F9
:10179000A42DA2271C030F0F0BD207E6431C074002
:1017A000F83B1007A810EBCBE00D2F4160B6443496
:1017B00001F0E705585401F6FE07623002F1FE061B
:1017C000903640054536D205AB5A462016010E1A12
:1017D0009984200410F00F0001900A2D78128D7664
:1017E000121D00462C0398102802D2B01A2DFE10AC
:1017F0001C07BCE0019807A911EBC0863C1E86308F
:101800000F1C01080CB9B60CA002884209D218219D
:1018100014200240F8081C8A16C6261E8372041083
:101820000183454B782D480F3E59985647F9FEC61F
:10183000163DC61D12111F28390C032B0400BA1CBB
:10184000010500BDE85F132B00181E202003421085
:101850002E4D5E281C0324D002AB04C2192D20306B
:101860006345FF961C0E71E00298800408D502982B
:1018700001991AEB8101063660051C0843029006A7
:10188000E01223498F101C07029B049A0198010162
:1018900065560C200440FD6D1CCAE7A22FB0E78EF0
:1018A0000E3601524402100F4AD24A21DC2D801616
:1018B000800603AA1AEB8B00011F165005FFF7E301
:1018C000FE0490037C1E338A0D1D5166100890049F
:1018D0009B2A005FEA0B114E5C60044CFD039845A7
:1018E0001932920448800210F13801181D7251918A
:1018F0004A1DBC46822048123C4832284821A43C5C
:1019000003B1E7012027A81A290A5E86023445DAC6
:101910001204443A06183E83B210540304988742D6
:10192000546C2DAE451D3038553E2747D0E22D7002
:10193000041E42AE111C010300F6FA3F123D0A1DBF
:10194000CC4F191C180780460398804533D24312A8
:1019500054010320997A1F3CFE2C0F357A140100A4
:10196000AB027A16507A6788FE7A1E21EA5B257AE6
:10197000160068761B7A16007A6112257A1D6017A8
:10198000379B027A1207D62F83FC140412C8D21E8A
:1019900002EC101AA7203207DA4D60212006EFF37F
:1019A000108072B67047081262088C02034A026007
:1019B000B65F4D145F5DB8031E2633681C022630E7
:1019C000008DE8611E1250041C0704D066781700D1
:1019D000FFB2BE72492C0A401C267875192678344D
:1019E00019EFE7A0031FF0B413283D160525223098
:1019F000018E4212321C0305D0687894B2111C0586
:101A00008CFC604504D19F76401E287A418C0C7F67
:101A10001C2878861928784519EAE7002088134D94
:101A20007E043E63E41F2D64613C0AA889A081E81E
:101A300089E081288A208282512EBFA45D2C021069
:101A4000B50024E8261D0C281C0322B3FBF2F23E4D
:101A50000F3D501B12045A25925001406803104D4F
:101A6000202F2DAC2C1DEA1915181E57D0491D101A
:101A7000391DE0112F37F86E222F05403A302D0422
:101A8000332DC0241D002D1D30601FFDF702551D94
:101A9000F03A3DB05F116C1C1207497944183106C9
:101AA0004C7C44163404E00A68081D51189C2E1C16
:101AB0000146A142803F1FBD8C211112AC041D784C
:101AC0001A1C04B807463846F9E8531EFBF0061CFA
:101AD0000300B4C404E875031E1DA0671EC9B92E17
:101AE000B001293C00011C011203318C051E332278
:101AF000692C033500360037A42A1E00520A1E0244
:101B000023683240212C02010102031868130227C6
:101B10000B10010080FA131284FCC38C0C48C375AF
:101B20004E1012ED1012FF0412CF04122104129F66
:101B3000041E448810929C3883200D0C11A3FE0DC6
:101B4000003C601C01FAF7573C601C01FAF7722E4A
:101B5000603C01FAF7713C603001FAF76F0E5E6A83
:101B60003C60FC0116FAF7693C601EFA5E452130C4
:101B7000114811066F76F8D45F21606D3C601EFA43
:101B8000662F4D3C60FC0108FAF7953C602D14343B
:101B90001C01FAF7331C374F41829440BE81B44296
:101BA0002002FCF765FC06200A62FB80B241196046
:101BB0008AFCF73FF910125A101D683420051C608A
:101BC00069FCF76BF812425112131DA0121E6278C5
:101BD000347C0170B58C00381E07B0294F0BFB6CAC
:101BE000362C05FCF742FB290007203522FF184F51
:101BF0002DFC30355C03FCF72AFC178C362C02F9DF
:101C0000F7EEFE6A5C4C02FCF7B6FFAA3B12B21478
:101C10001C01CAFBFB2C555001FCF7AC141EAAB4E6
:101C200036210823A8FF3ECF3DFB30381E0CF82993
:101C30001C0380B5F9F7C5343E2D2057CC02FDF7C3
:101C400010FAE22B23F8FB0623F5FADA2DEA33200B
:101C500002FBF729FEB87296B8120B58636BFDB8F9
:101C60001C018AFD29BE302D1C3A211863D1FBB816
:101C70001002CEFB10A83C4001F80025985001C886
:101C8000FF291A4345FDA232C4A2C38EFDA232161B
:101C9000A2A0041431FDF731FE9A2002F9F76BFF80
:101CA0009A92A89A2FFAFD5040F00300FCF79EFB91
:101CB00001A27282A252AFA232D9A27280A23003D4
:101CC0007DFB0BA9059A6008FAF700FF05A9FAF752
:101CD00012FF1C43F3FCA432D0A4F204AEA44802C9
:101CE000F9F722FF22A5403658406B55FA1A3632D2
:101CF000F6ADF6397001FCF79C9C12BB9C21841256
:101D0000D8843C01DAFF01184D1205121D183471F8
:101D1000A84729FB3A2DFE39419632C796D2BF9685
:101D2000320A961DE62F19B823FEE70243C0460289
:101D30003C03FFF7B9FD308A0321A621701C07750B
